:020000020000FC
:1000000022272CE124B900002FEF2DBF28E02EBFBE
:1000100022270027772781E040E023E025BD21E06B
:1000200025BB21E020936E00E8E8F1E0049153B194
:10003000517033B167D035FF07D087D033B13170FD
:10004000531799F4532FF5CF5DD033B135FF08C066
:10005000CC2735FD1DC0EDCF33B135FDD9CFFCCF59
:1000600051D0C395C83CC1F3F0CF23B1227026957F
:10007000321709F006C04131E4F643950591522F3D
:10008000E1CF4030B1F24A9531970491522FDACF47
:1000900011D08395873059F0641709F0CACF202F0B
:1000A00000E853D0022F36D050D07395C2CF7530B0
:1000B000A9F01BC0813041F0823041F0833041F023
:1000C000843041F0853041F065E0089565E00895A1
:1000D00065E0089565E0089565E008952D9812D0D3
:1000E00000E833D02D9A21D093CF08E02ED025D030
:1000F0008FCF2F9326E026BD222726B52030E9F7A3
:100100002F9108952F932227F4DF23952A30E1F7CA
:100110002F9108952F932227F5DF23952436E1F7B9
:100120002F910895F7DFF6DF08952F932227F2DF4E
:1001300023952530E1F72F9108952F932227EADFA9
:1001400023952930E1F72F9108950F931F931FB73F
:100150001F9318E000000000001F18F02A9800000C
:1001600002C02A9A00002C9A00002C9800001A95D0
:1001700099F72B9A00002B9800001F911FBF1F9129
:100180000F912A98000008953F065B4F666D7D072A
:100190007F6F77FC395E79797100050509060900E2
:00000001FF
