:020000020000FC
:1000000022272CE124B900002FEF2DBF28E02EBFBE
:10001000222723E025BD21E025BB21E020936E00AF
:1000200040E0002753B15370EAE0F1E004914ED074
:1000300033B13370531709F4FACF33B13370351736
:10004000B1F3232F3F93327036955170351741F03D
:10005000403169F34395049131965F910C941700F8
:100060004030B1F24A95319704915F91E0CF83958A
:10007000853031F4601701F091E07160770F770FF0
:100080008F3109F001C0C4CFC3CF23E826BD26B508
:100090002030E9F708952227F8DF23952431E1F78E
:1000A00008952227F8DF23952436E1F70895F9DF34
:1000B000F8DF08952227F5DF23952530E1F708952D
:1000C0002227EFDF23952930B1F708950F931F936F
:1000D0001FB71F9318E000000000001F18F02A98B7
:1000E000000002C02A9A00002C9A00002C98000000
:1000F0001A9599F72B9A00002B9800001F911FBFAB
:100100001F910F912A98000008953F065B4F666D7E
:100110007D077F6F77FC395E797971006D6D6F7D3A
:020120006F006E
:00000001FF
