:020000020000FC
:1000000022272CE124B900002FEF2DBF28E02EBFBE
:10001000222723E025BD21E025BB21E020936E00AF
:1000200040E000279FEFE0E2F1E0049153B151700E
:100030001D9B1AD056D033B13170531711F4532F82
:10004000F7CF23B122702695321709F006C041314F
:100050007CF743950591522FF2CF4030C9F24A9573
:1000600031970491522FEBCF21D01D9BE1DF839577
:10007000853029F4601701F07160770F770F8F31A9
:1000800009F001C0C5CF25D0C3CF2F9326E026BDF0
:10009000222726B52030E9F72F9108952F932227A4
:1000A000F4DF23952A30E1F72F9108952F9322272B
:1000B000F5DF23952A30E1F72F910895F7DFF6DF7A
:1000C00008952F932227F2DF23952530E1F72F9112
:1000D00008952F932227EADF23952930E1F72F9106
:1000E00008950F931F931FB71F9318E0000000009F
:1000F000001F18F02A98000002C02A9A00002C9ACB
:1001000000002C9800001A9599F72B9A00002B9864
:1001100000001F911FBF1F910F912A9800000895A2
:100120003F065B4F666D7D077F6F77FC395E79799F
:0801300071006D6D6F7D6F0021
:00000001FF
