:020000020000FC
:1000000022272CE124B900002FEF2DBF28E02EBFBE
:10001000222723E025BD21E025BB21E020936E00AF
:1000200040E000279FEFE4E1F1E004914CD053D091
:1000300033B133709370391709F4F9CF990F990FD1
:10004000932B973819F09B3439F0F1CF9FEF413162
:1000500071F343950591EBCF9FEF4030C9F24A957C
:1000600031970491E4CF8395853029F4601701F02E
:100070007160770F770F8F3109F001C0C9CF23D09E
:10008000C7CF96E096BD992796B59030E9F70895C9
:100090002F932227F6DF23952A30E1F72F91089539
:1000A0002F932227F5DF23952A30E1F72F9108952A
:1000B000F7DFF6DF08952F932227F2DF239525300F
:1000C000E1F72F9108952F932227EADF2395293016
:1000D000A1F72F9108950F931F931FB71F9318E057
:1000E00000000000001F18F02A98000002C02A9AA1
:1000F00000002C9A00002C9800001A9599F72B9A72
:1001000000002B9800001F911FBF1F910F912A988C
:10011000000008953F065B4F666D7D077F6F77FC9B
:0C012000395E797971006D6D6F7D6F00A4
:00000001FF
