:020000020000FC
:1000000000270CE104B900004427002753B15170C8
:10001000E4E8F0E0059117D033B13170351711F4F1
:10002000352FFACF53B152705695351731F04395AD
:10003000413154F7059107D0EFCF403069F34A952D
:10004000049101D0E9CF0F931F931FB71F9318E0BE
:1000500000000000001F18F02A98000002C02A9A31
:1000600000002C9A00002C9800001A9599F72B9A02
:1000700000002B9800001F911FBF1F910F912A981D
:10008000000008953F065B4F66006D7D077F6F009F
:0800900077FC395E79797100FB
:00000001FF
