:020000020000FC
:1000000022272CE124B900002FEF2DBF28E02EBFBE
:1000100022270027772781E040E023E025BD21E06B
:1000200025BB21E020936E0000E499D0ECE9F1E0DB
:10003000049153B1517033B16FD035FF0BD033B150
:1000400031705317C1F48BD0532F33B13370333029
:10005000D1F7F1CF61D033B135FF08C0CC2735FDE2
:1000600021C0E9CF33B135FDD3CFFCCF55D0C395F7
:10007000C83CC1F3F0CF23B122702695321709F0A6
:1000800008C0403101F343953196049168D0522F56
:10009000DACF403031F04A953197049160D0522F39
:1000A000D2CFD1CF11D08395863059F0641709F0A3
:1000B000C2CF202F00E853D0022F36D050D07395F6
:1000C000BACF7430A9F01BC0813041F0823041F0CA
:1000D000833041F0843041F0853041F065E008958F
:1000E00065E0089569E0089566E0089569E008957F
:1000F0002D9812D000E833D02D9A21D089CF08E076
:100100002ED025D085CF2F9326E026BD222726B5D9
:100110002030E9F72F9108952F932227F4DF2395BC
:100120002A30E1F72F9108952F932227F5DF2395A9
:100130002436E1F72F910895F7DFF6DF08952F9326
:100140002227F2DF23952530E1F72F9108952F9391
:100150002227EADF23952930E1F72F9108950F93A5
:100160001F931FB71F9318E000000000001F18F036
:100170002A98000002C02A9A00002C9A00002C98AD
:1001800000001A9599F72B9A00002B9800001F91F8
:100190001FBF1F910F912A98000008953F065B4FE3
:1001A000666D7D077F6F777C395E79797100050513
:0401B0000906090033
:00000001FF
