:020000020000FC
:1000000000270CE104B900000FEF0DBF08E00EBFA0
:100010004427002753B15370E6EAF0E005911CD065
:1000200033B1337075E037D0531709F4F8CF33B1DB
:100030003370232F327036955170351731F04031BF
:1000400074F743950591522FEACF403009F34A9552
:1000500031970491522FE3CF0F931F931FB71F9334
:1000600018E000000000001F18F02A98000002C0ED
:100070002A9A00002C9A00002C9800001A9599F7F3
:100080002B9A00002B9800001F911FBF1F910F910A
:100090002A98000008958EE39CE90197F1F77A957C
:1000A000D1F7000008953F065B4F666D7D077F6FB7
:0800B00077FC395E79797100DB
:00000001FF
